:020000001628C0
:0E000600831203132C088A002B0882000800C6
:1000140003208A110A128000840AAB0A0319AC0A6D
:08002400F003031D0A28080087
:10002C0083120313A001C030A100F930A200A43048
:10003C00A300B030A4009930A5009230A600823005
:10004C00A700F830A8008030A9009030AA00073033
:10005C009F000330831685008601831221088600D9
:10006C00051854280230FB000430FC00BA30FD00A7
:10007C00FD0B3E28FC0B3E28FB0B3E280000A00A83
:10008C002008093C03184C280930A0002008213E08
:10009C0084000008860005185428512885187128FA
:1000AC000230FB000430FC00BA30FD00FD0B5C2874
:1000BC00FC0B5C28FB0B5C280000A0032008FF3A1B
:1000CC00031D6928A0012008213E84000008860039
:0A00DC00851871286E283628722856
:02400E00782117
:00000001FF
